:020000040800F2
:1000000080060020310200086D0200086F0200081F
:100010007102000873020008750200080000000069
:10002000000000000000000000000000770200084F
:1000300079020008000000007B020008CD160008CD
:100040007F0200087F0200087F0200087F0200088C
:100050007F0200087F0200087F0200087F0200087C
:100060007F0200087F0200087F0200087F0200086C
:100070007F0200087F0200087F0200087F0200085C
:100080007F0200087F020008250500087F020008A3
:100090007F0200087F0200087F0200087F0200083C
:1000A0007F0200087F0200087F0200087F0200082C
:1000B0007F0200087F020008ED1800087F02000898
:1000C0007F0200087F0200087F0200087F0200080C
:1000D0007F0200087F0200087F0200087F020008FC
:1000E0007F0200087F0200087F0200087F020008EC
:1000F0007F0200087F0200087F0200087F020008DC
:100100007F0200087F0200087F0200087F020008CB
:100110007F0200087F0200087F0200087F020008BB
:100120007F0200087F0200087F0200087F020008AB
:100130007F0200087F0200087F0200087F0200089B
:100140007F0200087F0200087F0200087F0200088B
:100150007F0200087F0200087F0200087F0200087B
:100160007F0200087F0200087F0200087F0200086B
:100170007F0200087F0200087F02000800000000E4
:100180007F0200087F02000800F002F800F041F84A
:100190000AA090E8000C82448344AAF10107DA45E2
:1001A00001D100F036F8AFF2090EBAE80F0013F0F3
:1001B000010F18BFFB1A43F0010318470C1A000087
:1001C0002C1A0000103A24BF78C878C1FAD8520718
:1001D00024BF30C830C144BF04680C6070470000C1
:1001E0000023002400250026103A28BF78C1FBD840
:1001F000520728BF30C148BF0B607047642900F028
:10020000A180002070471FB501F0B4FC1FBD10B5E0
:1002100010BD00F04CF91146FFF7F5FF01F06AFC44
:1002200000F06AF903B4FFF7F2FF03BC00F072F9C3
:1002300016481749174B99423CBF50F8042B41F818
:10024000042BF8D314494FF000028B4238BF43F817
:10025000042BFAD3DFF84400016841F47001016017
:10026000BFF34F8FBFF36F8F0D480047FEE7FEE7E8
:10027000FEE7FEE7FEE7FEE7FEE7FEE7FEE7FEE756
:1002800008480949094A0A4B70470000E81B000862
:1002900000000020200000208006002088ED00E003
:1002A00089010008800000208006002080020020D4
:1002B000800200200FB41CB5074B06AA7B44694698
:1002C0000090059800F0DBF80020694600F0EAF89D
:1002D0001CBC5DF814FB0000E50100002DE9F041B5
:1002E0000E460446002020622046E168884730B36D
:1002F000252805D0D4E901219047206A401CF2E767
:10030000E168204600278847050018D0A5F1410084
:10031000192802D820354FF4006732462946204676
:100320002760FFF76BFF40B1012804D0F61D26F0CF
:1003300007060836D8E7361DD6E72846DAE7206AEA
:10034000BDE8F0812DE9F0410646002410687529CA
:10035000314616A510D0AFF30080002802DA4042E3
:1003600013A507E031688A0701D512A502E0490705
:1003700004D511A5012401E0AFF3008000210A2279
:1003800006F1240709E0B0FBF2FCB0FBF2F302FB3C
:100390001C00303078541846491C0028F3D12346FD
:1003A0002A463046BDE8F04100F00BB800000000DE
:1003B0002D0000002B000000200000007047704757
:1003C00070472DE9F0470D4699469246044600F1E4
:1003D00024080168880604D5E06921F01001216035
:1003E00000E00120A84201DD471B00E00027A169D1
:1003F0007A1902EB0900081AA0612078C00602D41D
:100400002046AFF30080002608E0D4E901211AF865
:1004100006009047206A401C761C20624E45F4DBA3
:100420002078C0060AD52046AFF3008006E0D4E964
:10043000012130209047206A401C2062381EA7F11D
:100440000107F4DC07E0D4E9012118F80500904722
:10045000206A401C2062281EA5F10105F3DC20461D
:10046000AFF300802078000602D50220BDE8F087B7
:100470000120FBE701694A1C02610878704700B55A
:100480008FB0CDE901310021059105497944CDE9CD
:10049000031011466846FFF721FF0FB000BD0000B2
:1004A000E5FFFFFF0A6802F8010B0A607047754616
:1004B00000F02CF8AE4605006946534620F00700D0
:1004C000854618B020B5FFF7DBFEBDE820404FF0B1
:1004D00000064FF000074FF000084FF0000B21F02E
:1004E0000701AC46ACE8C009ACE8C009ACE8C009FB
:1004F000ACE8C0098D46704710B50446AFF30080E4
:100500002046BDE81040FFF78DBE00000048704750
:100510002000002001491820ABBEFEE726000200A3
:100520007047000010B51220002807DB00F01F0202
:1005300001219140124A430942F8231000BF11489B
:10054000006800F00400042819D10E48006C0E4920
:1005500008600846006840F67461884205D800F0DB
:10056000E3F901200949086004E000F0D3F9002014
:100570000649086006480068401C0549086010BD2F
:1005800080E200E00000045000000020180000207D
:10059000080000201848406840F480701649486000
:1005A0001648006840F480001549C1F80803084661
:1005B000D0F8080320F47010C1F808030846D0F8FA
:1005C000080320F44030C1F808030846D0F80803B7
:1005D00040F48030C1F808030846D0F8080320F042
:1005E0001F00C1F808030846D0F8080340F00600D1
:1005F000C1F80803704700000000014008030450E0
:100600000000045000B54048C06C40F400503E4922
:10061000C8640846C06A40F40050C8620846C06A10
:100620000846C06A20F40050C86200F071F8FFF775
:10063000B1FF00F089F83548C06820F01800334950
:10064000C8600846C06820F02000C8600846C0683E
:1006500020F47070C8600846C06840F44070C860FC
:100660000846C06820F44060C8600846C06840F48E
:100670008060C8600846C06820F40050C860084622
:10068000006B20F00F0008630846006B20F4F86050
:1006900008630846006B40F4C07008631B48B03024
:1006A000006820F04000C1F8B0000846406920F41E
:1006B000E01048610846406940F44020486108461F
:1006C000406840F004004860122000280DDB00BFA5
:1006D00000BF00F01F02012191404209920002F187
:1006E000E022C2F8001100BF00BF00BF07488068C9
:1006F00040F001000549886000BF0448006800F030
:1007000001000028F9D000BD001002400000045094
:100710000C48C06C40F001000A49C8644FF090409A
:10072000006840F00C004FF0904108600846C06837
:1007300020F03C00C8600846C06A40F00200C86271
:1007400070470000001002400C49896801F0005118
:10075000B1F1005F05D10949896821F00051074ACC
:1007600091600649896841F08051044A91604FF4D4
:10077000C86000E0401E0028FCD170470000045013
:100780002DE9F0478246BAF1010F05D14FF48048B8
:100790001F24C146002705E04FF080484FF4F814AD
:1007A000C1461027BAF1010F06D13348006820F086
:1007B00001003149086005E02F48006820F48030CE
:1007C0002D4908602C48006840EA08002A49086062
:1007D000102508261CE0284838300068A043264928
:1007E000383108600846016805FA07F020400143E7
:1007F000214838300160012001F06EF91E48343084
:10080000006800EA090008B9354400E0AD1B76082D
:10081000002EE0D1184838300068A043164938311E
:1008200008600846016805FA07F0204001431248B5
:1008300038300160012001F04FF90F483430006872
:1008400000EA090080B96D1C0B4838300068A043ED
:100850000949383108600846016805FA07F0204068
:1008600001430548383001600348006820EA080069
:1008700001490860BDE8F0870074004010B51548D4
:10088000806D40F00050134988650220FFF778FF23
:100890001148006820F4E0200F4908600E483C38F9
:1008A000006840F480200C493C3908600846006824
:1008B00020F4601008600846006840F420100860CA
:1008C0000846006840F480300860012001F004F917
:1008D00010BD0000001002403C74004010B500F054
:1008E00003F8FFF7CBFF10BD0948C06C40F00100D2
:1008F0000749C8644FF09040006840F440604FF0F2
:10090000904108600846C06820F44060C8607047A5
:10091000001002400348406920F48070014948619A
:1009200070470000001000480348406940F48070A0
:10093000014948617047000000100048002000BFD6
:100940000B49096801F004010029F9D1002006E0F3
:10095000002207490C3141F82020411CC8B20F2861
:10096000F6DD0349096841F00401014A116070474E
:10097000082400402F48806D00F0805028B92D4891
:10098000806D40F080502B4988652A48806D2A4848
:10099000006800F4807060B92748006840F48070F7
:1009A0002549086000BF2448006800F480700028D2
:1009B000F9D020489030006820F005001D49C1F8AA
:1009C00090000846D0F8900040F48030C1F89000C4
:1009D0000846D0F8900020F48030C1F8900007E07D
:1009E00014489030006840F001001249C1F89000AE
:1009F00010489030006800F002000028F0D00D4848
:100A00009030006820F440700A49C1F89000084610
:100A1000D0F8900040F48070C1F890000846806DD6
:100A200020F0805088650846806D40F4007088652D
:100A30007047000000100240007000403E4800680F
:100A400020F001003C490860081D006840F4701067
:100A5000091D08600846006820F0707008600846AC
:100A6000006820F4403008600846006820F46040C8
:100A700008600846006840F4804008600846006846
:100A800040F0700008600846006820F4E0500860FC
:100A90000846006840F4A05008600846006820F04E
:100AA000700008600846006840F04000086000BF21
:100AB00021480830006800F020000028F8D01E48C7
:100AC000006820F01C001C4908600846006840F0DF
:100AD0000C0008600846006820F0600008600846C6
:100AE000006840F0400008600846006820F0800080
:100AF00008600846006820F00200086008460068A8
:100B000040F00100086000BF0B480830006800F0AA
:100B100001000028F8D000BF07480830006800F046
:100B200010000028F8D004480830006840F00400A5
:100B3000014908310860704700240040F0B50C46B8
:100B400015460021002600220778342F53D00FDCF1
:100B5000A7F12007142F5AD2DFE807F0235959597B
:100B600059435959282A253B5938593E494A4B4C33
:100B7000642F1FD008DCA7F13507052F47D2DFE827
:100B800007F03B3C3D3E3F00B02F27D004DC6D2FEB
:100B900013D06E2F3BD113E0B52F14D0FF2F36D1D9
:100BA00022E000214CE04AF2DD0149E0282147E043
:100BB000112145E04FF4734142E04BF210213FE038
:100BC00042F210213CE046F2840139E04FF420412A
:100BD00036E04AF2140133E0C02131E04FF46C41B9
:100BE0002EE04FF433412BE04FF6DD7128E000BFDB
:100BF00000BF00BF00BF00BF00BF00BF00BF00BFFD
:100C00000778303FDFF864C03CF8171018E0077829
:100C10005B2F08DA0778402F05DD0778413FDFF8C2
:100C200050C03CF8171007787B2F08DA0778602F40
:100C300005DD0778613FDFF838C03CF8171000BFCA
:100C400000BF0CB141F002010DB141F020010C26B2
:100C5000002208E041FA06F707F00F079F54371FFC
:100C6000FEB2571CFAB2042AF4DBF0BDB21B000836
:100C70007E1B00082DE9F0410446002500260027D0
:100C800020E060783A2801D1012600E00026607853
:100C90002E2801D1012700E000270EB1012000E03D
:100CA000002002460FB1012000E0002001462B4643
:100CB000204600F0E7F8641C06B1641C07B1641C10
:100CC000681CC5B2207808B1062DDADBBDE8F081DA
:100CD0005E48C06C40F00F005C49C8644FF0904023
:100CE00000685B4908404FF0904108600846006882
:100CF000584908434FF0904108600846006A40F0A8
:100D00003B4008620846406A534908434FF090410F
:100D10004862084680684E4908404FF0904188601C
:100D2000084680684B4908434FF090418860084668
:100D3000C068474908404FF09041C8604748006884
:100D40004749084045490860084600684549084346
:100D50004249086041482030006840F0BB103F49DC
:100D6000203108603D48406A3F4908433B4948629A
:100D70003A48083000683A49084038490831086064
:100D80000846006837490843344908310860081D9F
:100D900000683349084031490C3108603348006825
:100DA0003349084031490860084600683149084322
:100DB0002E4908602D48203000682F4908432B49F0
:100DC000203108602948406A40F00B012748416201
:100DD0002648083000682649084024490831086040
:100DE0000846006823490843204908310860081D67
:100DF00000681F4908401D490C3108601F48006801
:100E000080B21E490860084600681D4908431B4916
:100E100008600846406A40F0BB31184841621748F4
:100E2000083000686FF30F00144908310860084665
:100E3000006813490843114908310860081D00681B
:100E40006FF30F00091D086070470000001002409A
:100E5000FF0FC03F00A02A80BB0B00B00004004879
:100E6000F0F0F3000A0A08AAB000BBBB0008004873
:100E70003F00FCFF80AA020000B0BBBB000C004892
:100E80000000AAAAF8B505460E4617461C466B4652
:100E90003A4631462846FFF751FE00BFFE4800683B
:100EA00000F004000028F9D1062C7DD2DFE804F020
:100EB0000398FCFBFAF9F8480C300068F749084041
:100EC000F5490C310860F4480838C069F349084016
:100ED000F1490839C8610846406AF0490840EE49BE
:100EE000083948620846C06AEC490840EA490839AE
:100EF000C8629DF80000C007C00E9DF80010C1F345
:100F0000400140EAC1509DF80010C1F3800140EA61
:100F100081509DF80010C1F3C00140EAC100DE49D4
:100F20000C3109680843DC490C3108609DF8010068
:100F3000C007C00E9DF80110C1F3400140EAC15046
:100F40009DF80110C1F3800140EA81509DF8011025
:100F5000C1F3C00140EAC100CF490839C96908435B
:100F6000CD490839C8619DF80200C007C00E9DF840
:100F70000210C1F3400140EAC1509DF80210C1F3D4
:100F8000800140EA81509DF80210C1F3C00140EA9F
:100F9000C100C1490839496A0843BF490839486254
:100FA0009DF80300C00700E02EE3C00E9DF803107B
:100FB000C1F3400140EAC1509DF80310C1F3800124
:100FC00040EA81509DF80310C1F3C00140EAC1001E
:100FD000B1490839C96A0843AF490839C86214E3FE
:100FE000AD480C30006843F260018843AA490C31D7
:100FF0000860A9480838C06943F260018843A649DF
:101000000839C8610846406A43F260018843A24932
:10101000083948620846C06A43F2600188439E4925
:101020000839C8629DF80000C007400E9DF8001006
:10103000C1F3400140EA41309DF80010C1F3800146
:1010400040EA01309DF80010C1F3C00140EA4110B0
:1010500091490C31096808438F490C3108609DF8AB
:101060000100C007400E9DF80110C1F3400140EAA5
:1010700041309DF80110C1F3800140EA01309DF834
:101080000110C1F3C00140EA411083490839C96920
:10109000084381490839C8619DF80200C007400E25
:1010A00003E028E27CE1CAE036E09DF80210C1F3DB
:1010B000400140EA41309DF80210C1F3800140EA4E
:1010C00001309DF80210C1F3C00140EA411072499D
:1010D0000839496A08437049083948629DF8030095
:1010E000C007400E9DF80310C1F3400140EA4130B3
:1010F0009DF80310C1F3800140EA01309DF8031010
:10110000C1F3C00140EA411063490839C96A084384
:1011100061490839C86278E25F480C30006860496C
:1011200008405D490C3108605B480838C0695C497B
:10113000084059490839C8610846406A584908407A
:101140005549083948620846C06A5549084052491D
:101150000839C8629DF80000C007000C9DF8001017
:10116000C1F3400140EA41709DF80010C1F38001D5
:1011700040EA01709DF80010C1F3C00140EA8130DF
:1011800045490C310968084343490C3108609DF812
:101190000100C007000C9DF80110C1F3400140EAB6
:1011A00041709DF80110C1F3800140EA01709DF883
:1011B0000110C1F3C00140EA813037490839C969DB
:1011C000084335490839C8619DF80200C007000C82
:1011D0009DF80210C1F3400140EA41709DF80210F1
:1011E000C1F3800140EA01709DF80210C1F3C00113
:1011F00040EA813028490839496A084326490839B4
:1012000048629DF80300C007000C9DF80310C1F36D
:10121000400140EA41709DF80310C1F3800140EAAB
:1012200001709DF80310C1F3C00140EA81301A49F2
:101230000839C96A084318490839C862E5E11648FF
:101240000C30006820F0404013490C31086012480F
:101250000838806920F003010F4808388161C069AF
:1012600020F040410C480838C161006A20F00301B9
:10127000094808380162406A20F0404106480838B1
:101280004162806A20F00301034808388162C06A25
:1012900020F04041004805E008240040E7FF3FFF00
:1012A000FF3FFFCF0838C162006B20F00301DC482C
:1012B00001639DF80000C0079DF80010C1F3C00154
:1012C00040EA8170D649143109680843D449143181
:1012D00008609DF80000C0F380009DF80010C1F385
:1012E000400140EA4100CE4989690843CC49886100
:1012F0009DF80100C0079DF80110C1F3C00140EA4C
:101300008170C749C9690843C549C8619DF8010092
:10131000C0F380009DF80110C1F3400140EA410094
:10132000BF49096A0843BE4908629DF80200C00728
:101330009DF80210C1F3C00140EA8170B849496AC2
:101340000843B74948629DF80200C0F380009DF849
:101350000210C1F3400140EA4100B149896A0843E3
:10136000AF4988629DF80300C0079DF80310C1F3E0
:10137000C00140EA8170AA49C96A0843A849C86205
:101380009DF80300C0F380009DF80310C1F34001F5
:1013900040EA4100A249096B0843A149086334E1CE
:1013A0009F481430006820F040709D491431086057
:1013B0009B48806920F00C0199488161C06920F048
:1013C00040719748C161006A20F00C0194480162A5
:1013D000406A20F0407192484162806A20F00C011E
:1013E0008F488162C06A20F040718D48C162006BF5
:1013F00020F00C018A4801639DF80000C0F3400012
:1014000040069DF80010C1F3800140EA0160844964
:101410001431096808438249143108609DF80000BE
:10142000C007000F9DF80010C1F3C00140EA810021
:101430007B49896908437A4988619DF80100C0F3B6
:10144000400040069DF80110C1F3800140EA0160B0
:101450007349C96908437249C8619DF80100C00712
:10146000000F9DF80110C1F3C00140EA81006C49F2
:10147000096A08436A4908629DF80200C0F3400007
:1014800040069DF80210C1F3800140EA0160644902
:10149000496A0843624948629DF80200C007000F8C
:1014A0009DF80210C1F3C00140EA81005C49896ADD
:1014B00008435B4988629DF80300C0F34000400682
:1014C0009DF80310C1F3800140EA01605449C96AE4
:1014D00008435349C8629DF80300C007000F9DF8F8
:1014E0000310C1F3C00140EA81004D49096B084374
:1014F0004B49086389E04A4814300068494908406C
:101500004749143108604648C06946490840444983
:10151000C8610846406A4349084041494862084654
:10152000C06A404908403E49C8629DF80000C007B3
:10153000800B9DF80010C1F3400140EA01209DF8A6
:101540000010C1F3800140EA41209DF80010C1F372
:10155000C00140EA816032491431096808433049CA
:10156000143108609DF80100C007800B9DF8011040
:10157000C1F3400140EA01209DF80110C1F3800150
:1015800040EA41209DF80110C1F3C00140EA8160AA
:101590002349C96908432249C8619DF80200C00770
:1015A000800B9DF80210C1F3400140EA01209DF834
:1015B0000210C1F3800140EA41209DF80210C1F3FE
:1015C000C00140EA81601649496A084314494862EB
:1015D0009DF80300C007800B9DF80310C1F3400184
:1015E00040EA01209DF80310C1F3800140EA412048
:1015F0009DF80310C1F3C00140EA81600849C96A3F
:1016000008430749C86200E000BF00BF0448083033
:10161000006840F00400024908310860F8BD00008D
:1016200000240040FFFCFDFB2548C06C40F0120088
:101630002349C8642348006820F03000214908602D
:101640000846006840F0100008601E480830006836
:1016500020F030001B49083108600846006840F05F
:1016600030000860081F006820F00400091F0860AF
:1016700014480C30006820F0300012490C3108602A
:101680001148006820F440300F490860084600689F
:1016900040F4803008600846806820F4403088605C
:1016A0000846806840F4403088600846406820F46E
:1016B000807048600846C06820F44030C8607047B9
:1016C0000010024000040048001000480248006872
:1016D000401C0149086070471C00002010B5002024
:1016E0004FF0E02108611D48486100208861401EDC
:1016F0000121002804DB0A07130E194A135406E0DF
:101700000A07140E174A00F00F031B1FD45400BF22
:101710004FF0FF3000280DDB00BF00BF00F01F02BC
:10172000012191404209920002F1E022C2F8001129
:1017300000BF00BF00BF4FF0E020006940F0020092
:101740004FF0E02108610846006940F0040008619C
:101750000846006940F00100086110BD7F380100B3
:1017600000E400E018ED00E05E49096821F007019F
:101770005C4A11601146096841F0020111605A4942
:10178000096841F48071584A116000BF56490968E0
:1017900001F480610029F9D010205349496821F0F3
:1017A000F851514A51601146496841EA006151605F
:1017B0001146096821F08071116000BF4A4909682B
:1017C00001F00071B1F1007FF8D04749C96821F0FC
:1017D0000301454AD1601146C96841F00201D16058
:1017E0001146C96821F4FE4141F4A051D16011466F
:1017F000C96821F0700141F01001D1601146C9683B
:1018000021F0C061D1601146C96841F08071D1609A
:101810001146096841F08071116000BF32490968C2
:1018200001F000710029F9D02F49896821F00301E6
:101830002D4A91601146896841F00301916000BF13
:101840002949896801F00C010C29F9D126498968D8
:1018500021F0F001244A91601146896821F4E06189
:1018600091601146896821F46051916011460968C0
:1018700021F08061116000BF1B49096801F080619F
:10188000B1F1806FF8D01849096921F4FE41164A78
:1018900011611146096941F4C0511161114609698C
:1018A00041F4003111611146096941F4803111613F
:1018B0001146096841F08061116000BF0A4909685A
:1018C00001F080610029F9D007498831096821F4C5
:1018D0004001054AC2F888101146096E41F4001112
:1018E0001166704700200240001002402448006842
:1018F00000F0020060B32248006820F00200204996
:10190000086020490868411C1E4A11601E49086091
:101910001E48006801281BD10846006840F2F711F4
:10192000B0FBF1F201FB1200FB2804D840F6FF7077
:101930001749086002E00020154908601248006855
:1019400040F2F711B0FBF1F201FB12000E49086002
:101950000B48006800F0400028B10948006820F0FA
:101960004000074908600648006800F0010028B1FF
:101970000348006820F0010001490860704700003A
:10198000100800400C000020040000201800002077
:101990001474004010B54A48806D40F00400484976
:1019A00088654848006820F01000464908600846ED
:1019B000006820F060000860081D006820F07000DA
:1019C000091D08600846006840F0400008603D4876
:1019D0000C30006840F040003A490C31086008467D
:1019E000006840F0010008600846006840F002000E
:1019F00008603448183000683349084031491831CC
:101A000008600846006840F06000086012202D4918
:101A100028310860091D086009202A49343108600E
:101A200028482030006840F0010026492031086035
:101A30002448006840F00100224908602048C06C3A
:101A400040F002001E49C8642048006820F440505D
:101A50001E4908600846006840F4005008601B48B2
:101A60002030006820F07060184920310860084676
:101A7000006840F0007008601E200121002804DB8F
:101A80000A07130E124A135406E00A07140E114AED
:101A900000F00F031B1FD45400BF1E2000280DDBD5
:101AA00000BF00BF00F01F020121914042099200D7
:101AB00002F1E022C2F8001100BF00BF00BF10BD5C
:101AC00000100240000800408FFFFEFF00040048A5
:101AD00000E400E018ED00E0054A116800BF044A88
:101AE0001268521A8242FAD30022014B1A607047E0
:101AF0001C000020FFF738FEFFF7F0FDFFF794FD14
:101B0000FFF7E6F8FEF736FFFEF798FFFEF716FF41
:101B100011A0FFF7AFF81248FFF7ACF8FFF73AFF54
:101B2000FEF770FD0F48806840F004000D498860A2
:101B3000FEF7D4FE0EE00C4802680CA10848FEF740
:101B4000B9FB0748FFF796F8002400E0641C08483A
:101B50008442FBDBEFE700002A2A2A2A2A2A000017
:101B60001000002000000450000000202564000048
:101B7000A08601004FF04070E1EE100A704700FEB1
:101B80001467001D1447009D009C003F00FA1400DC
:101B9000005341980019485A095A005F00FC015F40
:101BA00001FC00AF1404005BC018815AC900580042
:101BB000C005005F004200F5006700EA00AF00BF0B
:101BC000004600FF00EF0000E81B000800000020B6
:101BD00020000000C4010008081C000820000020AC
:101BE00060060000E00100080000000000000000A6
:101BF00000000000000000000000000000000000E5
:081C00000000000000000000DC
:040000050800018965
:00000001FF
