:020000040800F2
:100000007006002029020008650200086702000847
:10001000690200086B0200086D0200080000000081
:100020000000000000000000000000006F02000857
:100030007102000800000000730200087502000849
:1000400077020008770200087702000877020008AC
:10005000770200087702000877020008770200089C
:10006000770200087702000877020008770200088C
:10007000770200087702000877020008770200087C
:10008000770200087702000877020008770200086C
:10009000770200087702000877020008770200085C
:1000A000770200087702000877020008770200084C
:1000B000770200087702000877020008770200083C
:1000C000770200087702000877020008770200082C
:1000D000770200087702000877020008770200081C
:1000E000770200087702000877020008770200080C
:1000F00077020008770200087702000877020008FC
:1001000077020008770200087702000877020008EB
:1001100077020008770200087702000877020008DB
:1001200077020008770200087702000877020008CB
:1001300077020008770200087702000877020008BB
:1001400077020008770200087702000877020008AB
:10015000770200087702000877020008770200089B
:10016000770200087702000877020008770200088B
:1001700077020008770200087702000800000000FC
:10018000770200087702000800F002F800F03CF85F
:100190000AA090E8000C82448344AAF10107DA45E2
:1001A00001D100F031F8AFF2090EBAE80F0013F0F8
:1001B000010F18BFFB1A43F0010318472403000086
:1001C00044030000103A24BF78C878C1FAD8520717
:1001D00024BF30C830C144BF04680C6070470000C1
:1001E0000023002400250026103A28BF78C1FBD840
:1001F000520728BF30C148BF0B6070471FB500F0E1
:1002000069F91FBD10B510BD00F053F81146FFF796
:10021000F5FF00F089F800F071F803B4FFF7F2FF82
:1002200003BC00F079F8000016481749174B9942B3
:100230003CBF50F8042B41F8042BF8D314494FF07D
:1002400000028B4238BF43F8042BFAD3DFF8440096
:10025000016841F470010160BFF34F8FBFF36F8FEE
:100260000D480047FEE7FEE7FEE7FEE7FEE7FEE794
:10027000FEE7FEE7FEE7FEE708480949094A0A4BA0
:100280007047000000050008000000200C0000205E
:100290007006002088ED00E0890100087000002051
:1002A0007006002070020020700200207047704726
:1002B0007047754600F02CF8AE4605006946534677
:1002C00020F00700854618B020B5FFF7D5FFBDE840
:1002D00020404FF000064FF000074FF000084FF0AD
:1002E000000B21F00701AC46ACE8C009ACE8C0093E
:1002F000ACE8C009ACE8C0098D46704710B50446AB
:10030000AFF300802046BDE81040FFF786BF000035
:10031000004870470C00002001491820ABBEFEE7E2
:1003200026000200704700006448C06C40F00100E5
:100330006249C8640846C06C40F00200C8640846C0
:10034000C06C40F01000C8645D48006820F03000C8
:100350005B4908600846006840F010000860594892
:10036000006820F44030574908600846006840F4AF
:10037000803008605248001D00685149091D08601E
:100380000846006808604FF09040006820F00300C5
:100390004FF0904108600846006820F44060086013
:1003A0000846006820F0C0000860084640684860C1
:1003B0000846406848600846C06820F00300C860EE
:1003C0000846C06820F0C000C8600846C06840F019
:1003D0008000C8600846C06820F44060C8600846D5
:1003E000C06840F40060C8600120374908600820F8
:1003F000364908602020364908605EE04FF09040A2
:1004000000693149096808402F490968884216D1B6
:100410002B481430006880F004002949143108602A
:100420002848406980F480702649486100BF4FF039
:10043000904000692449096808400028F7D14FF02E
:1004400090400069214909680840C008B0B11C48C3
:100450001430006840F0040019491431086019484C
:10046000406940F480701749486100BF4FF09040E8
:1004700000691649096808400028F7D14FF09040FC
:1004800000691349096808404009B0B10C481430AC
:10049000006820F004000A491431086009484069E6
:1004A00020F480700749486100BF4FF09040006918
:1004B0000749096808400028F7D19FE7001002406B
:1004C0000004004800100048000000200400002044
:1004D000080000204FF04070E1EE100A7047000065
:1004E00000050008000000200C000000C401000806
:1004F0000C0500080C00002064060000E001000864
:0C050000000000000000000000000000EF
:040000050800018965
:00000001FF
