:020000040800F2
:10000000680600202902000865020008670200084F
:10001000690200086B0200086D0200080000000081
:100020000000000000000000000000006F02000857
:100030007102000800000000730200085D0400085F
:1000400077020008770200087702000877020008AC
:10005000770200087702000877020008770200089C
:10006000770200087702000877020008770200088C
:10007000770200087702000877020008770200087C
:10008000770200087702000877020008770200086C
:10009000770200087702000877020008770200085C
:1000A000770200087702000877020008770200084C
:1000B000770200087702000877020008770200083C
:1000C000770200087702000877020008770200082C
:1000D000770200087702000877020008770200081C
:1000E000770200087702000877020008770200080C
:1000F00077020008770200087702000877020008FC
:1001000077020008770200087702000877020008EB
:1001100077020008770200087702000877020008DB
:1001200077020008770200087702000877020008CB
:1001300077020008770200087702000877020008BB
:1001400077020008770200087702000877020008AB
:10015000770200087702000877020008770200089B
:10016000770200087702000877020008770200088B
:1001700077020008770200087702000800000000FC
:10018000770200087702000800F002F800F03CF85F
:100190000AA090E8000C82448344AAF10107DA45E2
:1001A00001D100F031F8AFF2090EBAE80F0013F0F8
:1001B000010F18BFFB1A43F0010318473005000078
:1001C00050050000103A24BF78C878C1FAD8520709
:1001D00024BF30C830C144BF04680C6070470000C1
:1001E0000023002400250026103A28BF78C1FBD840
:1001F000520728BF30C148BF0B6070471FB500F0E1
:100200006FFA1FBD10B510BD00F053F81146FFF78F
:10021000F5FF00F041FA00F071F803B4FFF7F2FFC8
:1002200003BC00F079F8000016481749174B9942B3
:100230003CBF50F8042B41F8042BF8D314494FF07D
:1002400000028B4238BF43F8042BFAD3DFF8440096
:10025000016841F470010160BFF34F8FBFF36F8FEE
:100260000D480047FEE7FEE7FEE7FEE7FEE7FEE794
:10027000FEE7FEE7FEE7FEE708480949094A0A4BA0
:10028000704700000C070008000000200400002058
:100290006806002088ED00E0890100086800002061
:1002A000680600206802002068020020704770473E
:1002B0007047754600F02CF8AE4605006946534677
:1002C00020F00700854618B020B5FFF7D5FFBDE840
:1002D00020404FF000064FF000074FF000084FF0AD
:1002E000000B21F00701AC46ACE8C009ACE8C0093E
:1002F000ACE8C009ACE8C0098D46704710B50446AB
:10030000AFF300802046BDE81040FFF786BF000035
:10031000004870470400002001491820ABBEFEE7EA
:100320002600020070474FF09040006820F44C60B7
:100330004FF0904108600846C06820F44C60C860E7
:100340000846C06840F40860C860704715480068F7
:100350004FF2F0018843134908600846006840F0F6
:10036000100008600846006840F040000860084639
:10037000006840F4805008600846006840F48040FF
:100380000860081D006820F0CC00091D08600548C1
:100390000C3000684FF2F001884302490C310860CC
:1003A00070470000000400480348C06C40F00300A0
:1003B0000149C86470470000001002407CB5054642
:1003C0000FA103C9CDE90001002615E0002410E0CB
:1003D0000D48006820F0CC000B4908600846006812
:1003E0001DF80410084308490860052000F04AF988
:1003F000641C072CECDD761CAE42E7DB7CBD000004
:100400004404848088084840140400487CB50546AC
:100410000FA103C9CDE90001002615E0072410E073
:100420000D48006820F0CC000B49086008460068C1
:100430001DF80410084308490860032000F022F961
:10044000641E002CECDA761CAE42E7DB7CBD0000BB
:100450004404848088084840140400480448006824
:10046000002804DD02480068401E0149086070470A
:100470000000002010B500204FF0E02108611D4869
:10048000486100208861401E0121002804DB0A0722
:10049000130E194A135406E00A07140E174A00F007
:1004A0000F031B1FD45400BF4FF0FF3000280DDB9B
:1004B00000BF00BF00F01F020121914042099200DD
:1004C00002F1E022C2F8001100BF00BF00BF4FF0F0
:1004D000E020006940F002004FF0E021086108468A
:1004E000006940F0040008610846006940F001001E
:1004F000086110BD7F38010000E400E018ED00E065
:100500005E49096821F007015C4A116011460968DB
:1005100041F0020111605A49096841F48071584A5A
:10052000116000BF5649096801F480610029F9D0C3
:1005300010205349496821F0F851514A5160114641
:10054000496841EA006151601146096821F08071F3
:10055000116000BF4A49096801F00071B1F1007FE4
:10056000F8D04749C96821F00301454AD1601146D6
:10057000C96841F00201D1601146C96821F4FE4109
:1005800041F4A051D1601146C96821F0700141F0D9
:100590001001D1601146C96821F0C061D1601146D7
:1005A000C96841F08071D1601146096841F08071DD
:1005B000116000BF3249096801F000710029F9D0CB
:1005C0002F49896821F003012D4A916011468968FD
:1005D00041F00301916000BF2949896801F00C01D5
:1005E0000C29F9D12649896821F0F001244A91604B
:1005F0001146896821F4E06191601146896821F40F
:10060000605191601146096821F08061116000BF5E
:100610001B49096801F08061B1F1806FF8D0184979
:10062000096921F4FE41164A11611146096941F434
:10063000C05111611146096941F40031116111463F
:10064000096941F4803111611146096841F0806106
:10065000116000BF0A49096801F080610029F9D0E2
:1006600007498831096821F44001054AC2F8881019
:100670001146096E41F400111166704700200240D6
:10068000001002400349086000BF024909680029C0
:10069000FBD1704700000020FFF732FFFFF784FE18
:1006A000FFF741FEFFF752FEFFF7E4FE17E003E01D
:1006B0004FF40070FFF7AAFE4FF09040006900F081
:1006C00008000028F4D103E04FF48070FFF776FEB5
:1006D0004FF09040006900F020000028F4D1E6E7D8
:1006E0004FF04070E1EE100A704700000C07000860
:1006F0000000002004000000C401000810070008EA
:100700000400002064060000E00100080000000072
:040000050800018965
:00000001FF
